:020000000120DD
:04000B00120090321D
:1000200075A8927589027F177E25758A14758C5084
:1000300075B000D2B5D28C013C1200C7858020C3B8
:10004000A0007241B040B0B182035004D2B0C241AE
:10005000D3B001B040A00382B05004C2B0D240C3BC
:10006000A0017242B040B0B082045004D2B1C2428A
:10007000D3B000B040A00482B15004C2B1D240C39A
:10008000A000A0019240308C02013C1200F6013C1D
:0E00900009B90506790012009E221200C7224F
:10009E00BE2605BF1702D241BE2805BF1702D242A7
:1000AE00BE3B11BF17077E007F000200C77E000F08
:1000BE001200C7220E1200C722C2B6C2B730B0025B
:1000CE00D2B630B102D2B7900300EE75F00A84F8C2
:1000DE0093FBE8C5F093FAEF75F00A84F893FDE808
:1000EE00C5F093FC1200F6228AA0C290D2908BA08B
:1000FE00C291D2918CA0C292D2928DA0C293D29371
:01010E0022CE
:0A030000C0F9A4B0999282F8809031
:00000001FF
