:020000000120DD
:04000B0012006A3243
:1000200075A8927589027F177E25758AFF758C00E9
:10003000D28C0137120091858020A200B0B1B003AC
:100040005002D2B0A20172035002C2B0A201B0B0FD
:10005000B0045002D2B1A20072045002C2B1A2B1E7
:10006000308C0201371200B2013709B90906790054
:100070001200782212009122BE3B11BF17077E00AA
:100080007F000200917E000F120091220E1200915B
:1000900022900300EE75F00A84F893FBE8C5F09314
:0E00A000FAEF75F00A84F893FDE8C5F093FCC2
:1000AE001200B2228AA0C290D2908BA0C291D2919D
:0D00BE008CA0C292D2928DA0C293D2932248
:0A030000C0F9A4B0999282F8809031
:00000001FF
